:10000000A0C037C3F0C0C2C007CA95C3BFC0BEC03E
:10001000BDC0BCC0BBC0BAC0B9C0B8C0B7C0050184
:100020000902A1010901A10085010509190129039E
:100030001500250195037501810295017505810360
:100040000501093009311581257F75089502810662
:10005000C0C005010906A1018502750195080507C3
:1000600019E029E715002501810295017508810332
:10007000950575010508190129059102950175037A
:10008000910395057508150026A400050719002A97
:10009000A4008100C0050C0901A101850319002AF3
:1000A0003C021500263C02950175108100C0050137
:1000B0000980A101850495017502150125030982B6
:1000C00009810983816075068103C009022200014C
:1000D0000100803209040000010300000009210131
:1000E00001000122AD000705810308000A1201107A
:1000F00001000000088117AB240001010200011A71
:100100000349007200640072006F006900640020FF
:10011000004800540050004300100349007200647E
:100120000072006F00690064000403090401020406
:1001300008102001010101010100360038003700DC
:10014000F60911241FBECFE5D2E0DEBFCDBF10E01F
:10015000A0E6B0E0E4E6F7E102C005900D92A43716
:10016000B107D9F721E0A4E7B0E001C01D92A030AB
:10017000B207E1F711E0C2E4D1E003C02297FE012B
:10018000D5DAC034D107D1F7B7DAEACA39CFA82F08
:10019000B92F80E090E041E050EA609530E009C07E
:1001A0002D9182279795879510F084279527305EAB
:1001B000C8F36F5FA8F30895EADF8D939D930895C8
:1001C000A6E088279927AA9569F00197E1F3B399EA
:1001D000FCCFB39BFECF81E09927A6B3019611F027
:1001E000A871D9F70895CF93CFB7CF93C395B39B99
:1001F000E9F7B39B0BC0B39B09C0B39B07C0B39B8C
:1002000005C0B39B03C0B39B01C0D5C00F92DF9361
:10021000C091E300DD27C651DF4F012EB39B03C021
:10022000DF910F90E6CF2F930F931F934F932FEFF4
:100230004F6F06B303FB20F95F933F9350E03BE021
:1002400065C016B30126502953FDC89556B3012742
:1002500003FB25F92F7306B3B1F05027102713FBCA
:1002600026F906B22230F0F000C016B3012703FBD6
:1002700027F90126502906B22430E8F54F77206887
:1002800016B30000F6CF50274F7D206206B2102F24
:10029000000000C006B300265029102713FB26F9E2
:1002A00006B2E2CF4F7B06B3206400C0DACF01264E
:1002B0005029187106B269F14E7F2160012F16B3E3
:1002C00028C0002650294D7F06B22260102F29C079
:1002D000012650294B7F06B22460012F2DC016B392
:1002E00001265029477F2860000006B22EC04F7EAD
:1002F00006B3206130C0422706B349930026502937
:10030000102706B24FEF13FB20F9297F16B379F2BD
:10031000187159F10126502906B2012703FB21F972
:10032000237F06B371F2002650293150D0F006B277
:10033000102713FB22F9277E16B351F2012650290C
:10034000012703FB06B223F92F7C49F2000006B314
:10035000102713FB24F90026502906B22F7939F211
:1003600070CF10E21ABF002719C03B503195C31B54
:10037000D04010E21ABF0881033C09F10B34F9F0B8
:100380002091E1001981110F1213EDCF4A81441F12
:10039000093651F10D3211F0013E29F70093E800C2
:1003A0003F915F914F911F910F912F91DF910F908E
:1003B000CAB7C5FD1BCFCF91CFBFCF911895209164
:1003C000E800222369F31091E600112379F5343017
:1003D0007AF13093E6002093E2001091E3003BE0D5
:1003E000311B3093E30024C00091E6000130F4F4A7
:1003F0000AE54F7049F43091680034FD1AC000934B
:100400006800CAECD0E019C03091D50034FD11C0AD
:100410000093D500C6EDD0E010C0052710E000C065
:1004200021C0052710E0C89508BB14C03AE501C0FB
:1004300032ED032EC0E0D0E032E017B31861C39A6A
:1004400008B317BB58E120E84FEF20FF052708BB92
:10045000279517951C3F28F700004552B0F720FF5D
:100460000527279508BB17951C3FB8F629913A95A3
:1004700061F7077E1091E700110F08BBC250D04012
:1004800011F01093E10010E21ABF086017B3177E55
:10049000402F477E54E05A95F1F708BB17BB48BB85
:1004A0007FCFCF92DF92EF92FF920F931F93CF9364
:1004B0008C0140D9F82EC80101963CD9C82FC8013B
:1004C000029638D9C82EC801039634D9082F8C2F2C
:1004D00090E0A0E0B0E06627782F892F9A2F6F0D6B
:1004E000711D811D911DD12CE12CF12C7601DD2493
:1004F000CC246C0D7D1D8E1D9F1D10E020E030E092
:10050000302F222711270027600F711F821F931F92
:10051000CF911F910F91FF90EF90DF90CF900895B2
:10052000CF92DF92EF92FF92CF93DF93EC016A01BB
:100530007B01642F07D999278F2D7E2D6D2DCE013C
:10054000019600D9B70188279927CE010296FAD8DB
:100550006F2D772788279927CE010396DF91CF91BA
:10056000FF90EF90DF90CF90EDC862E080E0FCD785
:1005700089E090E0909375008093740086E490E0A9
:1005800090DF6093AD007093AE008093AF009093C6
:10059000B0008BE490E085DF6093A9007093AA001F
:1005A0008093AB009093AC0080E590E07ADF60939D
:1005B000A5007093A6008093A7009093A80085E5FE
:1005C00090E06FDF6093A1007093A2008093A3007E
:1005D0009093A4008AE590E064DF60939D0070939F
:1005E0009E0080939F009093A0008FE590E059DFDC
:1005F0006093990070939A0080939B0090939C0065
:1006000084E690E04EDF60939500709396008093AF
:100610009700909398008EE690E043DF60939100FE
:1006200070939200809393009093940083E790E0FE
:1006300038DF60938D0070938E0080938F009093CD
:100640009000B99AC29A88E185BB80E28BBF8BB7D4
:1006500080648BBF789485B7816085BF8CB58160DD
:100660008CBD1ABC85E083BF82E089BF87EB90E038
:100670005AC51F920F920FB60F9211244F935F939A
:100680006F937F938F939F93AF93BF93B29B02C05F
:1006900012BE44C082B78093850080918400882375
:1006A00049F0809185008E31C8F5809185008330B6
:1006B00028F434C081E08093840030C080918500AC
:1006C000803120F080918600803230F08091860069
:1006D0008F5F8093860022C08091860040E050E0CA
:1006E00060E070E804C076956795579547958A95C0
:1006F000D2F78091800090918100A0918200B0910A
:100700008300842B952BA62BB72B8093800090938E
:100710008100A0938200B0938300D8CFBF91AF91A6
:100720009F918F917F916F915F914F910F900FBE2D
:100730000F901F9018951F920F920FB60F921124D1
:100740008F939F93AF93BF9380918600882319F076
:1007500081E0809376001092860010928400809150
:10076000800090918100A0918200B09183008093DD
:100770007C0090937D00A0937E00B0937F00109248
:100780008000109281001092820010928300BF912D
:10079000AF919F918F910F900FBE0F901F90189562
:1007A0000F931F93CF93DF936AE070E0A9D78B017B
:1007B000C0E0D0E0C017D10759F081E291EA01977B
:1007C000F1F700C0000087EB90E0AED42196F2CFA5
:1007D000DF91CF911F910F910895AB01BC018091E2
:1007E000AD009091AE00A091AF00B091B00020910B
:1007F000B100481759076A077B0721F4211102C08D
:1008000042E510C08091A9009091AA00A091AB0090
:10081000B091AC00481759076A077B0741F42111D2
:1008200006C041E560E087EB90E098D4D9C18091A3
:10083000A5009091A600A091A700B091A80048172C
:1008400059076A077B0721F4211102C040E5EACF6E
:100850008091A1009091A200A091A300B091A4006A
:10086000481759076A077B0721F4211102C04FE49A
:10087000D9CF80919D0090919E00A0919F00B09152
:10088000A000481759076A077B0721F4211102C00D
:1008900048E2C8CF8091990090919A00A0919B0066
:1008A000B0919C00481759076A077B0721F4211172
:1008B00002C04AE2B7CF8091950090919600A09136
:1008C0009700B0919800481759076A077B0721F4F1
:1008D000211102C06DEC21C0809191009091920095
:1008E000A0919300B0919400481759076A077B07BD
:1008F00021F4211102C065EB10C080918D00909110
:100900008E00A0918F00B0919000481759076A0798
:100910007B0739F4211105C066EB87EB90E02AD400
:100920005FC1222309F45FC140937800509379009E
:1009300060937A0070937B008091740090917500B1
:100940000897C1F486E490E0EBDD64E670E080E0B7
:1009500090E0CDD58091780090917900A0917A00B7
:10096000B0917B008093AD009093AE00A093AF0058
:10097000B093B0008091740090917500079701F5D5
:10098000409178005091790060917A0070917B00DD
:100990008BE490E0C5DD64E670E080E090E0A7D5F0
:1009A0008091780090917900A0917A00B0917B00BD
:1009B0008093A9009093AA00A093AB00B093AC00E1
:1009C0008091740090917500069701F54091780030
:1009D0005091790060917A0070917B0080E590E001
:1009E0009FDD64E670E080E090E081D58091780042
:1009F00090917900A0917A00B0917B008093A5003E
:100A00009093A600A093A700B093A80080917400D3
:100A100090917500059701F540917800509179000B
:100A200060917A0070917B0085E590E079DD64E665
:100A300070E080E090E05BD5809178009091790043
:100A4000A0917A00B0917B008093A1009093A200C6
:100A5000A093A300B093A4008091740090917500BE
:100A6000049701F5409178005091790060917A00E7
:100A700070917B008AE590E053DD64E670E080E0F1
:100A800090E035D58091780090917900A0917A001E
:100A9000B0917B0080939D0090939E00A0939F0057
:100AA000B093A0008091740090917500039701F5B8
:100AB000409178005091790060917A0070917B00AC
:100AC0008FE590E02DDD64E670E080E090E00FD5EA
:100AD0008091780090917900A0917A00B0917B008C
:100AE0008093990090939A00A0939B00B0939C00F0
:100AF0008091740090917500029701F54091780003
:100B00005091790060917A0070917B0084E690E0CA
:100B100007DD68EC70E080E090E0E9D48091780037
:100B200090917900A0917A00B0917B00809395001C
:100B300090939600A0939700B093980080917400D2
:100B400090917500019701F54091780050917900DE
:100B500060917A0070917B008EE690E0E1DC68ECB9
:100B600070E080E090E0C3D48091780090917900AB
:100B7000A0917A00B0917B008093910090939200B5
:100B8000A0939300B09394008091740090917500AD
:100B9000892B31F5409178005091790060917A006D
:100BA00070917B0083E790E0BBDC68EC70E080E054
:100BB00090E09DD48091780090917900A0917A0086
:100BC000B0917B0080938D0090938E00A0938F0056
:100BD000B093900089E090E090937500809374004A
:100BE00061E081E0F8C4089580E024D590938A0004
:100BF00080938900209187003091880082179307A5
:100C0000F9F0892BB1F481E08093B10080918B00E1
:100C100090918C00019690938C0080938B00809132
:100C20007400909175000197909375008093740003
:100C300002C01092B10062E370E080E090E057D40F
:100C40008091890090918A0090938800809387001A
:100C5000809176008823F1F010927800109279004C
:100C600010927A0010927B0060917C0070917D0060
:100C700080917E0090917F0061157105810591053D
:100C800021F0ABDD81E0809377001092760086E959
:100C900090E086CD80917700882359F060E081E074
:100CA0009AD440E060E087EB90E058D21092770051
:100CB00008958CE190E10197F1F700C0000087EB07
:100CC00090E032C2F89480E090E020E80FB6F8940B
:100CD00026BD86BD0FBE88B3877E88BBBB9A27EA38
:100CE00086E99CE0215080409040E1F700C0000080
:100CF000BB980ED278940895D8C0CF93DF931F92FB
:100D0000CDB7DEB78983D1D09091D500898194FF8A
:100D1000F9CF682F82EC90E00F90DF91CF91A1C0C6
:100D2000FC0181E08093B40080818076803209F0FC
:100D30004EC081818330A1F040F48130E9F08230EF
:100D400009F045C086E690E00DC08A3029F08B306E
:100D500079F08930E1F532C083818093660037C035
:100D600083EB90E09093E5008093E40081E00895A8
:100D700083818093B3002BC082EC90E09093E500D8
:100D80008093E40082818093C2001092C900109287
:100D9000C8001092C7001092C6001092C5001092B1
:100DA000C4001092C3008281813099F0823099F0A2
:100DB000833091F0843079F482E0089581E02681D7
:100DC00037812230310509F080E08195089580E077
:100DD000089584E0089588E00895FC01818180935E
:100DE000B20081E00895DF92EF92FF920F931F937C
:100DF000CF93DF93C8E0D0E0F12C80E8E82EDF2C21
:100E0000DE0CD1BEDDD98C01043389E018070CF467
:100E1000FD2CE694219799F78FEF8F0D81BFCF2D91
:100E2000D0E0219681B790E0C817D9078CF0C8D9D7
:100E30008453994097FF03C091958195910980173C
:100E4000910714F4F1B68C0181B78F5F81BFEACFAF
:100E5000F1BEDF91CF911F910F91FF90EF90DF9046
:100E60000895CF93C62F2091D50024FF07C020916D
:100E7000D60038E823272093D60003C02AE5209324
:100E8000D500DC01E7EDF0E09C2F9E0F8D91819362
:100E9000892F8E1B1816D4F36C2F87ED90E08CD918
:100EA000CC5FC093D500CF910895CF93DF9360912D
:100EB000E600635067FDC1C08091E300CCE0D0E064
:100EC000C81BD109C651DF4F8091E2008D3209F075
:100ED000A3C0683009F0AFC083EC8093CA008AE5F4
:100EE000809368001092B6008881807619F0CE0158
:100EF00017DF7FC09A811092D3008981811106C0CB
:100F00001092D40023ED30E082E06FC0853019F4F8
:100F10009093E70067C0863009F04EC08B81813026
:100F200041F48DEE90E09093E5008093E40082E13F
:100F30003FC0823041F48BEC90E09093E5008093C9
:100F4000E40082E235C08330F1F4911108C089E2F7
:100F500091E09093E5008093E40084E029C0913013
:100F600041F489E191E09093E5008093E40080E111
:100F70001FC09230E1F48FEF90E09093E5008093F2
:100F8000E4008AE115C0813241F48DED90E0909348
:100F9000E5008093E40089E00BC0823241F48EE1E9
:100FA00090E09093E5008093E4008DEA01C080E03A
:100FB00090E49093B6001DC0883069F0893019F430
:100FC0009093E9000FC08A3049F08B3059F48BE4DC
:100FD0008093D60007C029EE30E002C023ED30E058
:100FE00081E003C023ED30E080E03093E500209302
:100FF000E4008F3F39F4988197FD8E8190E89093BB
:10100000B60007C09F81911104C09E81981708F413
:10101000892F809367000FC08091B60087FF0BC0B7
:10102000CE01DBDE8F3F21F48EE18093680003C0A8
:101030008111109267001092E6008091680084FF91
:101040004CC0809167008F3F09F447C0C82F89309A
:1010500008F0C8E08C1B809367008091CA0098E874
:1010600089278093CA00CC2361F18091E40090919C
:10107000E5002091B60026FF12C0ABECB0E02AECF0
:1010800030E020953095280F391F4C2F4A0FF90179
:10109000EA0FFB1FE491ED934A13F9CF09C0EBEC83
:1010A000F0E0DC012C2F2E0F3D9131932E13FCCF5D
:1010B00001962FEF2C0F820F911D9093E5008093E6
:1010C000E4006C2F8BEC90E077D8CC5FCC3019F03B
:1010D0008FEF80936700C093680084E196B39871A6
:1010E00031F48150D9F71092E7001092E100C1E08D
:1010F0008111C0E08091B5008C1739F0C11103C097
:10110000F89471DE7894C093B500DF91CF91089583
:10111000AC9A8BB780628BBF8BE48093D6008AE554
:101120008093D5000895CECDE7CDCF92EF920F9367
:101130006093C3001092C4004093C5002093C60082
:101140000093C700E092C800C092C90082E080937B
:10115000C20088E00F91EF90CF90CFCDCF92EF9269
:101160000F93C12CE12C00E020E0DFDF0F91EF9026
:10117000CF900895DF92EF92FF920F931F93CF933A
:10118000DF9382ECE82E80E0F82E93E0D92EF70171
:10119000D08203EC10E0F8016083C4ECD0E0188248
:1011A00083E0ABDDF701D082F8011082188283E082
:1011B000DF91CF911F910F91FF90EF90DF909DCD28
:1011C000CF93DF931F92CDB7DEB76983DA01F901C0
:1011D00010821C929FEB980F9A3130F48D538083CC
:1011E000898181FF0AC00CC09FE9980F9A3150F4A1
:1011F0008D558083898181FF03C082E08C93CDC0AF
:101200001C92CBC090ED980F9A3028F4803309F4EB
:101210009AC08351C1C08F3209F4B9C0D0F586326B
:1012200009F485C0F0F4813209F46DC058F48A30B5
:1012300009F4B1C0803209F4ACC0893009F0ADC006
:101240008BE2AAC0833209F466C008F492C08432EB
:1012500009F465C0853209F0A0C082E08C9382E277
:101260009BC08A3209F467C040F4883209F467C031
:1012700008F481C082E08C9366C08C3209F47FC090
:1012800008F467C08D3209F462C08E3209F47BC065
:1012900084C08C3509F469C0D0F48D3309F45BC087
:1012A00058F48B3309F463C008F067C08A3309F03F
:1012B00074C082E08C935BC08F3309F466C008F47D
:1012C00060C0803421F18B3509F447C066C0803698
:1012D000E1F138F48E3539F108F443C082E08C93A3
:1012E00036C08C3709F43FC030F48B3709F055C055
:1012F00082E08C9332C08D3791F18E3709F04DC06A
:1013000082E08C9322C082E08C938EE145C082E023
:101310008C938FE141C082E08C9380E23DC082E0FB
:101320008C9381E239C082E08C9383E235C082E005
:101330008C9384E231C082E08C9385E22DC082E000
:101340008C9386E229C087E227C085E325C08DE221
:1013500023C082E08C938EE21FC08FE21DC082E02A
:101360008C9380E319C082E08C9381E315C083E302
:1013700013C082E08C9384E30FC082E08C9386E3F9
:101380000BC082E08C9387E307C082E08C9388E3F4
:1013900003C08CE201C088E280830F90DF91CF917F
:1013A00008950F931F93CF93DF9300D0CDB7DEB78F
:1013B0008C01862F9E012F5F3F4FAE014E5F5F4F26
:1013C0006091B200FDDE49816A81C801C7DE40E05C
:1013D00060E0C801C3DE0F900F90DF91CF911F91A5
:1013E0000F910895DEDF81E090E008958DE690E0B2
:1013F0009093B8008093B700089583B7887F83BF28
:101400008AB58C7F81608ABD83B7877F83BF83B7AE
:10141000887F836083BF089578941F920F920FB6E0
:101420000F9211242F933F938F939F93AF93BF936A
:101430008091BA009091BB00A091BC00B091BD001A
:101440003091B9002CE7230F2D3728F02FEF230F11
:101450000196A11DB11D2093B9008093BA0090930D
:10146000BB00A093BC00B093BD008091BE009091E2
:10147000BF00A091C000B091C1000196A11DB11D97
:101480008093BE009093BF00A093C000B093C100B2
:10149000BF91AF919F918F913F912F910F900FBE70
:1014A0000F901F9018953FB7F8948091BE009091CF
:1014B000BF00A091C000B091C1002FB508B602FED8
:1014C00005C02F3F19F00196A11DB11D3FBF662732
:1014D000782F892F9A2F620F711D811D911D42E077
:1014E000660F771F881F991F4A95D1F70895CF92ED
:1014F000DF92EF92FF92CF93DF936B017C01D3DFFA
:10150000EB01C114D104E104F10471F0CCDF6C1BD8
:101510007D0B683E7340A8F381E0C81AD108E1084A
:10152000F108C851DC4FEDCFDF91CF91FF90EF90E4
:10153000DF90CF900895789480B7806880BF80B79F
:10154000806480BF8CB580648CBD8FEF8DBD80B70B
:10155000807F876080BF89B7846089BF4EDF86B196
:10156000876086B9379A0895CF93DF9390E0FC01A6
:10157000E35DFE4F2491FC01ED5CFE4F84918823D6
:1015800039F190E0FC01E35CFE4FA491B0E0FC0176
:10159000E55CFE4F8491611106C09FB7F8948C9171
:1015A0002095822313C0623069F4C82FD0E09FB722
:1015B000F8948C91322F309583238C938881822BE1
:1015C000888305C09FB7F8948C91822B8C939FBF22
:1015D000DF91CF910895A82FB0E0FD01E35DFE4FAC
:1015E0009491FD01ED5CFE4FE491EE2311F1811128
:1015F00003C08AB58F7304C0813021F48AB58F7C13
:101600008ABD05C0843019F48CB58F7C8CBDF0E0A8
:10161000E55CFE4FA491B0E02FB7611105C0F894CE
:101620008C919095892303C0F8948C91892B8C938D
:101630002FBF0895282F30E0F901E35DFE4F94910C
:10164000F901ED5CFE4FE491EE23E1F0811103C05E
:101650008AB58F7304C0813021F48AB58F7C8ABD2E
:1016600005C0843019F48CB58F7C8CBDF0E0E75C4C
:10167000FE4FE491F0E02081292381E090E021F405
:1016800080E0089580E090E008950F931F93CF933A
:10169000DF93EC018B01F80161918F01662341F02A
:1016A000E881F9810190F081E02DCE010995F3CF19
:1016B000DF91CF911F910F910895EF92FF920F93B9
:1016C0001F93CF93DF937C018A01EB01060F171F55
:1016D000C017D10751F06991D701ED91FC910190AC
:1016E000F081E02DC7010995F3CFDF91CF911F91D4
:1016F0000F91FF90EF9008951EDF37D775DAFECF78
:10170000AA1BBB1B51E107C0AA1FBB1FA617B70727
:1017100010F0A61BB70B881F991F5A95A9F7809543
:101720009095BC01CD010895EE0FFF1F0590F49137
:10173000E02D0994E199FECF9FBB8EBBE09A9927DB
:101740008DB30895262FE199FECF1CBA9FBB8EBBA7
:101750002DBB0FB6F894E29AE19A0FBE0196089558
:04176000F894FFCF2B
:101764000000000180007DFF5A00000000F20945DE
:041774000B5D0B00FE
:00000001FF
